{
  "contractName": "BaseOwnership",
  "abi": [
    {
      "constant": true,
      "inputs": [
        {
          "name": "",
          "type": "uint256"
        }
      ],
      "name": "tokenIndex",
      "outputs": [
        {
          "name": "",
          "type": "address"
        }
      ],
      "payable": false,
      "stateMutability": "view",
      "type": "function"
    },
    {
      "anonymous": false,
      "inputs": [
        {
          "indexed": true,
          "name": "_from",
          "type": "address"
        },
        {
          "indexed": true,
          "name": "_to",
          "type": "address"
        },
        {
          "indexed": false,
          "name": "_tokenId",
          "type": "uint256"
        }
      ],
      "name": "Transfer",
      "type": "event"
    },
    {
      "anonymous": false,
      "inputs": [
        {
          "indexed": true,
          "name": "_owner",
          "type": "address"
        },
        {
          "indexed": true,
          "name": "_approved",
          "type": "address"
        },
        {
          "indexed": false,
          "name": "_tokenId",
          "type": "uint256"
        }
      ],
      "name": "Approval",
      "type": "event"
    },
    {
      "constant": true,
      "inputs": [
        {
          "name": "_owner",
          "type": "address"
        }
      ],
      "name": "balanceOf",
      "outputs": [
        {
          "name": "count",
          "type": "uint256"
        }
      ],
      "payable": false,
      "stateMutability": "view",
      "type": "function"
    },
    {
      "constant": false,
      "inputs": [
        {
          "name": "_to",
          "type": "address"
        },
        {
          "name": "_tokenId",
          "type": "uint256"
        }
      ],
      "name": "transfer",
      "outputs": [],
      "payable": false,
      "stateMutability": "nonpayable",
      "type": "function"
    },
    {
      "constant": false,
      "inputs": [
        {
          "name": "_to",
          "type": "address"
        },
        {
          "name": "_tokenId",
          "type": "uint256"
        }
      ],
      "name": "approve",
      "outputs": [],
      "payable": false,
      "stateMutability": "nonpayable",
      "type": "function"
    },
    {
      "constant": false,
      "inputs": [
        {
          "name": "_tokenId",
          "type": "uint256"
        }
      ],
      "name": "takeOwnership",
      "outputs": [],
      "payable": false,
      "stateMutability": "nonpayable",
      "type": "function"
    },
    {
      "constant": true,
      "inputs": [],
      "name": "totalSupply",
      "outputs": [
        {
          "name": "",
          "type": "uint256"
        }
      ],
      "payable": false,
      "stateMutability": "view",
      "type": "function"
    },
    {
      "constant": true,
      "inputs": [
        {
          "name": "_tokenId",
          "type": "uint256"
        }
      ],
      "name": "ownerOf",
      "outputs": [
        {
          "name": "",
          "type": "address"
        }
      ],
      "payable": false,
      "stateMutability": "view",
      "type": "function"
    }
  ],
  "bytecode": "0x6060604052341561000f57600080fd5b6107c58061001e6000396000f300606060405260043610610083576000357c0100000000000000000000000000000000000000000000000000000000900463ffffffff1680630583e9f814610088578063095ea7b3146100eb57806318160ddd1461012d5780636352211e1461015657806370a08231146101b9578063a9059cbb14610206578063b2e6ceeb14610248575b600080fd5b341561009357600080fd5b6100a9600480803590602001909190505061026b565b604051808273ffffffffffffffffffffffffffffffffffffffff1673ffffffffffffffffffffffffffffffffffffffff16815260200191505060405180910390f35b34156100f657600080fd5b61012b600480803573ffffffffffffffffffffffffffffffffffffffff1690602001909190803590602001909190505061029e565b005b341561013857600080fd5b61014061039d565b6040518082815260200191505060405180910390f35b341561016157600080fd5b61017760048080359060200190919050506103ad565b604051808273ffffffffffffffffffffffffffffffffffffffff1673ffffffffffffffffffffffffffffffffffffffff16815260200191505060405180910390f35b34156101c457600080fd5b6101f0600480803573ffffffffffffffffffffffffffffffffffffffff1690602001909190505061042b565b6040518082815260200191505060405180910390f35b341561021157600080fd5b610246600480803573ffffffffffffffffffffffffffffffffffffffff16906020019091908035906020019091905050610474565b005b341561025357600080fd5b6102696004808035906020019091905050610544565b005b60016020528060005260406000206000915054906101000a900473ffffffffffffffffffffffffffffffffffffffff1681565b803373ffffffffffffffffffffffffffffffffffffffff166102bf826103ad565b73ffffffffffffffffffffffffffffffffffffffff161415156102e157600080fd5b826003600084815260200190815260200160002060006101000a81548173ffffffffffffffffffffffffffffffffffffffff021916908373ffffffffffffffffffffffffffffffffffffffff1602179055508273ffffffffffffffffffffffffffffffffffffffff163373ffffffffffffffffffffffffffffffffffffffff167f8c5be1e5ebec7d5bd14f71427d1e84f3dd0314c0f7b2291e5b200ac8c7c3b925846040518082815260200191505060405180910390a3505050565b6000600160008054905003905090565b6000806001600084815260200190815260200160002060009054906101000a900473ffffffffffffffffffffffffffffffffffffffff169050600073ffffffffffffffffffffffffffffffffffffffff168173ffffffffffffffffffffffffffffffffffffffff161415151561042257600080fd5b80915050919050565b6000600260008373ffffffffffffffffffffffffffffffffffffffff1673ffffffffffffffffffffffffffffffffffffffff168152602001908152602001600020549050919050565b600073ffffffffffffffffffffffffffffffffffffffff168273ffffffffffffffffffffffffffffffffffffffff16141515156104b057600080fd5b6104b9816103ad565b73ffffffffffffffffffffffffffffffffffffffff168273ffffffffffffffffffffffffffffffffffffffff16141515156104f357600080fd5b3373ffffffffffffffffffffffffffffffffffffffff16610513826103ad565b73ffffffffffffffffffffffffffffffffffffffff1614151561053557600080fd5b6105403383836105cd565b5050565b60003373ffffffffffffffffffffffffffffffffffffffff166003600084815260200190815260200160002060009054906101000a900473ffffffffffffffffffffffffffffffffffffffff1673ffffffffffffffffffffffffffffffffffffffff161415156105b357600080fd5b6105bc826103ad565b90506105c98133846105cd565b5050565b600260008373ffffffffffffffffffffffffffffffffffffffff1673ffffffffffffffffffffffffffffffffffffffff16815260200190815260200160002060008154809291906001019190505550816001600083815260200190815260200160002060006101000a81548173ffffffffffffffffffffffffffffffffffffffff021916908373ffffffffffffffffffffffffffffffffffffffff160217905550600073ffffffffffffffffffffffffffffffffffffffff168373ffffffffffffffffffffffffffffffffffffffff161415156106f557600260008473ffffffffffffffffffffffffffffffffffffffff1673ffffffffffffffffffffffffffffffffffffffff16815260200190815260200160002060008154809291906001900391905055505b7fddf252ad1be2c89b69c2b068fc378daa952ba7f163c4a11628f55a4df523b3ef838383604051808473ffffffffffffffffffffffffffffffffffffffff1673ffffffffffffffffffffffffffffffffffffffff1681526020018373ffffffffffffffffffffffffffffffffffffffff1673ffffffffffffffffffffffffffffffffffffffff168152602001828152602001935050505060405180910390a15050505600a165627a7a723058202b0644a906df8ae7198f2e4e7395349bcb303a6dc8018a8ca3b39f42e2e7392e0029",
  "source": "pragma solidity ^0.4.18;\n\nimport \"../node_modules/zeppelin-solidity/contracts/token/ERC721/ERC721.sol\";\nimport \"./BaseContract.sol\";\n\n\n/// @title Ownership contract that deals with all of the ownership related\n/// functionality of a token\n/// @author Alex Koller & Kevin Le\n/// lastmod 12/4/18 Niaz added onlyOwnerOf modifier\n\ncontract BaseOwnership is BaseContract, ERC721 {\n\n  mapping (uint => address) tokenApprovals;\n\n  /// @dev Returns the number of tokens owned by the given ownerId\n  function balanceOf(address _owner) public view returns (uint count) {\n    return ownerTokenCount[_owner];\n  }\n\n  /// @dev The external function that transfers one token from its current\n  /// owner id to a new id\n  function transfer(address _to, uint256 _tokenId) external {\n    /// check token has an owner (not 0x0)\n    require(_to != address(0));\n    /// check  that the owner to be is not already the owner\n    require(_to != ownerOf(_tokenId));\n    /// check that the owner of the token is msg.sender\n    require(ownerOf(_tokenId) == msg.sender);\n\n    /// TODO: use the approval class to do these checks (tidy up code)\n    /// executing internal transfer function from base contract\n    _transfer(msg.sender, _to, _tokenId);\n  }\n\n\n\n  /// @dev approves an address for the specified token to be sent to\n  function approve(address _to, uint256 _tokenId) public onlyOwnerOf(_tokenId) {\n    tokenApprovals[_tokenId] = _to;\n    Approval(msg.sender, _to, _tokenId);\n  }\n\n  /* /// @dev transferfrom - logic to be checked\n  function transferFrom(address _from, address _to, uint _tokenId) external {\n    //check token has an owner (not 0x0)\n    require(_to != address(0));\n    //check  that the owner to be is not already the owner\n    require(_to != address(_tokenId));\n    //check that the owner of the token is msg.sender\n    require(ownerOf(_tokenId) == _from);\n\n    _transfer(_from, _to, _tokenId);\n\n  } */\n\n  /// @dev transfers a token to an approved address\n  function takeOwnership(uint256 _tokenId) public {\n    require(tokenApprovals[_tokenId] == msg.sender);\n    address owner = ownerOf(_tokenId);\n    _transfer(owner, msg.sender, _tokenId);\n  }\n\n  /// @dev returns the total count of all tokens\n  function totalSupply() public view returns(uint) {\n    return tokens.length-1;\n  }\n\n  /// @dev returns the owner of a given token id\n  function ownerOf(uint256 _tokenId) public view returns (address) {\n    address owner = tokenIndex[_tokenId];\n    require(owner != address(0));\n    return owner;\n  }\n\n  /**\n  * @dev Guarantees msg.sender is owner of the given token\n  * @param _tokenId uint256 ID of the token to validate its ownership belongs to msg.sender\n  */\n  modifier onlyOwnerOf(uint256 _tokenId) {\n    require(ownerOf(_tokenId) == msg.sender);\n    _;\n  }\n}\n",
  "sourcePath": "/Users/niaz/Documents/Pegacats Resources/Pegacat/src/contracts/BaseOwnership.sol",
  "compiler": {
    "name": "solc",
    "version": "0.4.19+commit.c4cbbb05.Emscripten.clang"
  },
  "schemaVersion": "2.0.0",
  "updatedAt": "2018-04-23T06:55:42.727Z"
}