{
  "contractName": "BaseOwnership",
  "abi": [
    {
      "constant": true,
      "inputs": [
        {
          "name": "",
          "type": "uint256"
        }
      ],
      "name": "tokenIndex",
      "outputs": [
        {
          "name": "",
          "type": "address"
        }
      ],
      "payable": false,
      "stateMutability": "view",
      "type": "function"
    },
    {
      "anonymous": false,
      "inputs": [
        {
          "indexed": true,
          "name": "_from",
          "type": "address"
        },
        {
          "indexed": true,
          "name": "_to",
          "type": "address"
        },
        {
          "indexed": false,
          "name": "_tokenId",
          "type": "uint256"
        }
      ],
      "name": "Transfer",
      "type": "event"
    },
    {
      "constant": true,
      "inputs": [
        {
          "name": "_owner",
          "type": "address"
        }
      ],
      "name": "balanceOf",
      "outputs": [
        {
          "name": "count",
          "type": "uint256"
        }
      ],
      "payable": false,
      "stateMutability": "view",
      "type": "function"
    },
    {
      "constant": false,
      "inputs": [
        {
          "name": "_to",
          "type": "address"
        },
        {
          "name": "_tokenId",
          "type": "uint256"
        }
      ],
      "name": "transfer",
      "outputs": [],
      "payable": false,
      "stateMutability": "nonpayable",
      "type": "function"
    },
    {
      "constant": true,
      "inputs": [],
      "name": "totalSupply",
      "outputs": [
        {
          "name": "",
          "type": "uint256"
        }
      ],
      "payable": false,
      "stateMutability": "view",
      "type": "function"
    },
    {
      "constant": true,
      "inputs": [
        {
          "name": "_tokenId",
          "type": "uint256"
        }
      ],
      "name": "ownerOf",
      "outputs": [
        {
          "name": "",
          "type": "address"
        }
      ],
      "payable": false,
      "stateMutability": "view",
      "type": "function"
    }
  ],
  "bytecode": "0x6060604052341561000f57600080fd5b6105c28061001e6000396000f30060606040526004361061006d576000357c0100000000000000000000000000000000000000000000000000000000900463ffffffff1680630583e9f81461007257806318160ddd146100d55780636352211e146100fe57806370a0823114610161578063a9059cbb146101ae575b600080fd5b341561007d57600080fd5b61009360048080359060200190919050506101f0565b604051808273ffffffffffffffffffffffffffffffffffffffff1673ffffffffffffffffffffffffffffffffffffffff16815260200191505060405180910390f35b34156100e057600080fd5b6100e8610223565b6040518082815260200191505060405180910390f35b341561010957600080fd5b61011f6004808035906020019091905050610233565b604051808273ffffffffffffffffffffffffffffffffffffffff1673ffffffffffffffffffffffffffffffffffffffff16815260200191505060405180910390f35b341561016c57600080fd5b610198600480803573ffffffffffffffffffffffffffffffffffffffff169060200190919050506102b1565b6040518082815260200191505060405180910390f35b34156101b957600080fd5b6101ee600480803573ffffffffffffffffffffffffffffffffffffffff169060200190919080359060200190919050506102fa565b005b60016020528060005260406000206000915054906101000a900473ffffffffffffffffffffffffffffffffffffffff1681565b6000600160008054905003905090565b6000806001600084815260200190815260200160002060009054906101000a900473ffffffffffffffffffffffffffffffffffffffff169050600073ffffffffffffffffffffffffffffffffffffffff168173ffffffffffffffffffffffffffffffffffffffff16141515156102a857600080fd5b80915050919050565b6000600260008373ffffffffffffffffffffffffffffffffffffffff1673ffffffffffffffffffffffffffffffffffffffff168152602001908152602001600020549050919050565b600073ffffffffffffffffffffffffffffffffffffffff168273ffffffffffffffffffffffffffffffffffffffff161415151561033657600080fd5b61033f81610233565b73ffffffffffffffffffffffffffffffffffffffff168273ffffffffffffffffffffffffffffffffffffffff161415151561037957600080fd5b3373ffffffffffffffffffffffffffffffffffffffff1661039982610233565b73ffffffffffffffffffffffffffffffffffffffff161415156103bb57600080fd5b6103c63383836103ca565b5050565b600260008373ffffffffffffffffffffffffffffffffffffffff1673ffffffffffffffffffffffffffffffffffffffff16815260200190815260200160002060008154809291906001019190505550816001600083815260200190815260200160002060006101000a81548173ffffffffffffffffffffffffffffffffffffffff021916908373ffffffffffffffffffffffffffffffffffffffff160217905550600073ffffffffffffffffffffffffffffffffffffffff168373ffffffffffffffffffffffffffffffffffffffff161415156104f257600260008473ffffffffffffffffffffffffffffffffffffffff1673ffffffffffffffffffffffffffffffffffffffff16815260200190815260200160002060008154809291906001900391905055505b7fddf252ad1be2c89b69c2b068fc378daa952ba7f163c4a11628f55a4df523b3ef838383604051808473ffffffffffffffffffffffffffffffffffffffff1673ffffffffffffffffffffffffffffffffffffffff1681526020018373ffffffffffffffffffffffffffffffffffffffff1673ffffffffffffffffffffffffffffffffffffffff168152602001828152602001935050505060405180910390a15050505600a165627a7a723058205fddbb79f07d073d682fe49bb7430af51860d0d77b0e2f7fcfbc4198f3d86ef40029",
  "source": "pragma solidity ^0.4.18;\n\nimport \"../node_modules/zeppelin-solidity/contracts/token/ERC721/ERC721.sol\";\nimport \"./BaseContract.sol\";\n\n/// @title Ownership contract that deals with all of the ownership related\n/// functionality of a token\n/// @author Alex Koller & Kevin Le\n/// lastmod 26/3/18\ncontract BaseOwnership is BaseContract, ERC721 {\n\n  /// @dev Returns the number of tokens owned by the given ownerId\n  function balanceOf(address _owner) public view returns (uint count) {\n    return ownerTokenCount[_owner];\n  }\n\n  /// @dev The external function that transfers one token from its current\n  /// owner id to a new id\n  function transfer(address _to, uint256 _tokenId) external {\n    /// check token has an owner (not 0x0)\n    require(_to != address(0));\n    /// check  that the owner to be is not already the owner\n    require(_to != ownerOf(_tokenId));\n    /// check that the owner of the token is msg.sender\n    require(ownerOf(_tokenId) == msg.sender);\n\n    /// TODO: use the approval class to do these checks (tidy up code)\n    /// executing internal transfer function from base contract\n    _transfer(msg.sender, _to, _tokenId);\n  }\n\n\n  //approve - to be implemented later\n  /* function approve() internal {\n\n  } */\n\n  /* /// @dev transferfrom - logic to be checked\n  function transferFrom(address _from, address _to, uint _tokenId) external {\n    //check token has an owner (not 0x0)\n    require(_to != address(0));\n    //check  that the owner to be is not already the owner\n    require(_to != address(_tokenId));\n    //check that the owner of the token is msg.sender\n    require(ownerOf(_tokenId) == _from);\n\n    _transfer(_from, _to, _tokenId);\n\n  } */\n\n\n  /// @dev returns the total count of all tokens\n  function totalSupply() public view returns(uint) {\n    return tokens.length-1;\n  }\n\n  /// @dev returns the owner of a given token id\n  function ownerOf(uint256 _tokenId) public view returns (address) {\n    address owner = tokenIndex[_tokenId];\n    require(owner != address(0));\n    return owner;\n  }\n}\n",
  "sourcePath": "/Users/alexkoller/GitHub/Pegacat/src/contracts/BaseOwnership.sol",
  "compiler": {
    "name": "solc",
    "version": "0.4.19+commit.c4cbbb05.Emscripten.clang"
  },
  "schemaVersion": "2.0.0",
  "updatedAt": "2018-03-27T11:57:13.798Z"
}