{
  "contractName": "Test",
  "abi": [
    {
      "constant": false,
      "inputs": [],
      "name": "testCreateToken",
      "outputs": [],
      "payable": false,
      "stateMutability": "nonpayable",
      "type": "function"
    }
  ],
  "bytecode": "0x60606040523415600e57600080fd5b60848061001c6000396000f300606060405260043610603f576000357c0100000000000000000000000000000000000000000000000000000000900463ffffffff168063459a585a146044575b600080fd5b3415604e57600080fd5b60546056565b005b5600a165627a7a723058206f5de87813508d3a4393fbb62142a36d7fb35abd204d81f3a9c859f8939e96d10029",
  "source": "pragma solidity ^0.4.18;\n\n//import \"truffle/Assert.sol\";\n//import \"truffle/DeployedAddresses.sol\";\nimport \"./BaseContract.sol\";\nimport \"./BaseOwnership.sol\";\n\ncontract Test {\n  function testCreateToken(){\n    //BaseContract test = BaseContract();\n    //test._generateToken();\n  }\n}\n",
  "sourcePath": "/Users/kevinle/Documents/GitHub/Pegacat/src/contracts/Test.sol",
  "compiler": {
    "name": "solc",
    "version": "0.4.19+commit.c4cbbb05.Emscripten.clang"
  },
  "schemaVersion": "2.0.0",
  "updatedAt": "2018-03-27T02:25:58.336Z"
}