{
  "contractName": "TokenMinting",
  "abi": [
    {
      "constant": true,
      "inputs": [
        {
          "name": "",
          "type": "uint256"
        }
      ],
      "name": "tokenIndex",
      "outputs": [
        {
          "name": "",
          "type": "address"
        }
      ],
      "payable": false,
      "stateMutability": "view",
      "type": "function"
    },
    {
      "constant": false,
      "inputs": [
        {
          "name": "_to",
          "type": "address"
        },
        {
          "name": "_tokenId",
          "type": "uint256"
        }
      ],
      "name": "approve",
      "outputs": [],
      "payable": false,
      "stateMutability": "nonpayable",
      "type": "function"
    },
    {
      "constant": true,
      "inputs": [],
      "name": "totalSupply",
      "outputs": [
        {
          "name": "",
          "type": "uint256"
        }
      ],
      "payable": false,
      "stateMutability": "view",
      "type": "function"
    },
    {
      "constant": true,
      "inputs": [
        {
          "name": "_tokenId",
          "type": "uint256"
        }
      ],
      "name": "ownerOf",
      "outputs": [
        {
          "name": "",
          "type": "address"
        }
      ],
      "payable": false,
      "stateMutability": "view",
      "type": "function"
    },
    {
      "constant": true,
      "inputs": [
        {
          "name": "_owner",
          "type": "address"
        }
      ],
      "name": "balanceOf",
      "outputs": [
        {
          "name": "count",
          "type": "uint256"
        }
      ],
      "payable": false,
      "stateMutability": "view",
      "type": "function"
    },
    {
      "constant": false,
      "inputs": [
        {
          "name": "_to",
          "type": "address"
        },
        {
          "name": "_tokenId",
          "type": "uint256"
        }
      ],
      "name": "transfer",
      "outputs": [],
      "payable": false,
      "stateMutability": "nonpayable",
      "type": "function"
    },
    {
      "constant": true,
      "inputs": [],
      "name": "LIMIT",
      "outputs": [
        {
          "name": "",
          "type": "uint256"
        }
      ],
      "payable": false,
      "stateMutability": "view",
      "type": "function"
    },
    {
      "constant": false,
      "inputs": [
        {
          "name": "_tokenId",
          "type": "uint256"
        }
      ],
      "name": "takeOwnership",
      "outputs": [],
      "payable": false,
      "stateMutability": "nonpayable",
      "type": "function"
    },
    {
      "anonymous": false,
      "inputs": [
        {
          "indexed": true,
          "name": "_from",
          "type": "address"
        },
        {
          "indexed": true,
          "name": "_to",
          "type": "address"
        },
        {
          "indexed": false,
          "name": "_tokenId",
          "type": "uint256"
        }
      ],
      "name": "Transfer",
      "type": "event"
    },
    {
      "anonymous": false,
      "inputs": [
        {
          "indexed": true,
          "name": "_owner",
          "type": "address"
        },
        {
          "indexed": true,
          "name": "_approved",
          "type": "address"
        },
        {
          "indexed": false,
          "name": "_tokenId",
          "type": "uint256"
        }
      ],
      "name": "Approval",
      "type": "event"
    },
    {
      "constant": false,
      "inputs": [
        {
          "name": "_owner",
          "type": "address"
        },
        {
          "name": "_tokenId",
          "type": "uint256"
        }
      ],
      "name": "createToken",
      "outputs": [
        {
          "name": "",
          "type": "uint256"
        }
      ],
      "payable": false,
      "stateMutability": "nonpayable",
      "type": "function"
    },
    {
      "constant": false,
      "inputs": [
        {
          "name": "owner",
          "type": "address"
        }
      ],
      "name": "createTokens",
      "outputs": [],
      "payable": false,
      "stateMutability": "nonpayable",
      "type": "function"
    }
  ],
  "bytecode": "0x6060604052341561000f57600080fd5b6109cb8061001e6000396000f3006060604052600436106100a4576000357c0100000000000000000000000000000000000000000000000000000000900463ffffffff1680630583e9f8146100a9578063095ea7b31461010c57806318160ddd1461014e5780636352211e146101775780636a10d4d6146101da57806370a0823114610230578063a9059cbb1461027d578063af8214ef146102bf578063b2e6ceeb146102e8578063cedbbeee1461030b575b600080fd5b34156100b457600080fd5b6100ca6004808035906020019091905050610344565b604051808273ffffffffffffffffffffffffffffffffffffffff1673ffffffffffffffffffffffffffffffffffffffff16815260200191505060405180910390f35b341561011757600080fd5b61014c600480803573ffffffffffffffffffffffffffffffffffffffff16906020019091908035906020019091905050610377565b005b341561015957600080fd5b610161610476565b6040518082815260200191505060405180910390f35b341561018257600080fd5b6101986004808035906020019091905050610486565b604051808273ffffffffffffffffffffffffffffffffffffffff1673ffffffffffffffffffffffffffffffffffffffff16815260200191505060405180910390f35b34156101e557600080fd5b61021a600480803573ffffffffffffffffffffffffffffffffffffffff16906020019091908035906020019091905050610504565b6040518082815260200191505060405180910390f35b341561023b57600080fd5b610267600480803573ffffffffffffffffffffffffffffffffffffffff16906020019091905050610518565b6040518082815260200191505060405180910390f35b341561028857600080fd5b6102bd600480803573ffffffffffffffffffffffffffffffffffffffff16906020019091908035906020019091905050610561565b005b34156102ca57600080fd5b6102d2610631565b6040518082815260200191505060405180910390f35b34156102f357600080fd5b6103096004808035906020019091905050610636565b005b341561031657600080fd5b610342600480803573ffffffffffffffffffffffffffffffffffffffff169060200190919050506106bf565b005b60016020528060005260406000206000915054906101000a900473ffffffffffffffffffffffffffffffffffffffff1681565b803373ffffffffffffffffffffffffffffffffffffffff1661039882610486565b73ffffffffffffffffffffffffffffffffffffffff161415156103ba57600080fd5b826003600084815260200190815260200160002060006101000a81548173ffffffffffffffffffffffffffffffffffffffff021916908373ffffffffffffffffffffffffffffffffffffffff1602179055508273ffffffffffffffffffffffffffffffffffffffff163373ffffffffffffffffffffffffffffffffffffffff167f8c5be1e5ebec7d5bd14f71427d1e84f3dd0314c0f7b2291e5b200ac8c7c3b925846040518082815260200191505060405180910390a3505050565b6000600160008054905003905090565b6000806001600084815260200190815260200160002060009054906101000a900473ffffffffffffffffffffffffffffffffffffffff169050600073ffffffffffffffffffffffffffffffffffffffff168173ffffffffffffffffffffffffffffffffffffffff16141515156104fb57600080fd5b80915050919050565b600061051082846106eb565b905092915050565b6000600260008373ffffffffffffffffffffffffffffffffffffffff1673ffffffffffffffffffffffffffffffffffffffff168152602001908152602001600020549050919050565b600073ffffffffffffffffffffffffffffffffffffffff168273ffffffffffffffffffffffffffffffffffffffff161415151561059d57600080fd5b6105a681610486565b73ffffffffffffffffffffffffffffffffffffffff168273ffffffffffffffffffffffffffffffffffffffff16141515156105e057600080fd5b3373ffffffffffffffffffffffffffffffffffffffff1661060082610486565b73ffffffffffffffffffffffffffffffffffffffff1614151561062257600080fd5b61062d33838361076c565b5050565b606481565b60003373ffffffffffffffffffffffffffffffffffffffff166003600084815260200190815260200160002060009054906101000a900473ffffffffffffffffffffffffffffffffffffffff1673ffffffffffffffffffffffffffffffffffffffff161415156106a557600080fd5b6106ae82610486565b90506106bb81338461076c565b5050565b60008090505b6064811115156106e7576106d98282610504565b5080806001019150506106c5565b5050565b60006106f5610938565b600060206040519081016040528086815250915060016000805480600101828161071f919061094c565b916000526020600020900160008590919091506000820151816000015550500390508063ffffffff168114151561075557600080fd5b6107616000858361076c565b809250505092915050565b600260008373ffffffffffffffffffffffffffffffffffffffff1673ffffffffffffffffffffffffffffffffffffffff16815260200190815260200160002060008154809291906001019190505550816001600083815260200190815260200160002060006101000a81548173ffffffffffffffffffffffffffffffffffffffff021916908373ffffffffffffffffffffffffffffffffffffffff160217905550600073ffffffffffffffffffffffffffffffffffffffff168373ffffffffffffffffffffffffffffffffffffffff1614151561089457600260008473ffffffffffffffffffffffffffffffffffffffff1673ffffffffffffffffffffffffffffffffffffffff16815260200190815260200160002060008154809291906001900391905055505b7fddf252ad1be2c89b69c2b068fc378daa952ba7f163c4a11628f55a4df523b3ef838383604051808473ffffffffffffffffffffffffffffffffffffffff1673ffffffffffffffffffffffffffffffffffffffff1681526020018373ffffffffffffffffffffffffffffffffffffffff1673ffffffffffffffffffffffffffffffffffffffff168152602001828152602001935050505060405180910390a1505050565b602060405190810160405280600081525090565b815481835581811511610973578183600052602060002091820191016109729190610978565b5b505050565b61099c91905b80821115610998576000808201600090555060010161097e565b5090565b905600a165627a7a72305820c6a10c0b7a06cf2cc01e749be3e770a5da81a9aaa67edd3f2a761a46718c474e0029",
  "source": "pragma solidity ^0.4.18;\n\nimport \"./BaseOwnership.sol\";\n\n/// @title Miniting contract deals with the generation of new tokens\n/// @author Alex Koller & Kevin Le\n/// lastmod 27/3/18\ncontract TokenMinting is BaseOwnership {\n  /// constant used for limit on how many tokens to mint\n  uint256 public constant LIMIT = 100;\n\n  /// @dev creates an individual token\n  function createToken(address _owner, uint256 _tokenId) public returns(uint) {\n    return _generateToken(_tokenId, _owner);\n  }\n\n  /// @dev generates multiple tokens\n  function createTokens(address owner) public {\n    for (uint256 i = 0; i <= LIMIT; i++){\n      createToken(owner, i);\n    }\n  }\n}\n",
  "sourcePath": "/Users/niaz/Documents/Pegacats Resources/Pegacat/src/contracts/TokenMinting.sol",
  "compiler": {
    "name": "solc",
    "version": "0.4.19+commit.c4cbbb05.Emscripten.clang"
  },
  "schemaVersion": "2.0.0",
  "updatedAt": "2018-04-23T06:55:42.731Z"
}