{
  "contractName": "TokenMinting",
  "abi": [
    {
      "constant": true,
      "inputs": [
        {
          "name": "",
          "type": "uint256"
        }
      ],
      "name": "tokenIndex",
      "outputs": [
        {
          "name": "",
          "type": "address"
        }
      ],
      "payable": false,
      "stateMutability": "view",
      "type": "function"
    },
    {
      "constant": true,
      "inputs": [],
      "name": "totalSupply",
      "outputs": [
        {
          "name": "",
          "type": "uint256"
        }
      ],
      "payable": false,
      "stateMutability": "view",
      "type": "function"
    },
    {
      "constant": true,
      "inputs": [
        {
          "name": "_tokenId",
          "type": "uint256"
        }
      ],
      "name": "ownerOf",
      "outputs": [
        {
          "name": "",
          "type": "address"
        }
      ],
      "payable": false,
      "stateMutability": "view",
      "type": "function"
    },
    {
      "constant": true,
      "inputs": [
        {
          "name": "_owner",
          "type": "address"
        }
      ],
      "name": "balanceOf",
      "outputs": [
        {
          "name": "count",
          "type": "uint256"
        }
      ],
      "payable": false,
      "stateMutability": "view",
      "type": "function"
    },
    {
      "constant": false,
      "inputs": [
        {
          "name": "_to",
          "type": "address"
        },
        {
          "name": "_tokenId",
          "type": "uint256"
        }
      ],
      "name": "transfer",
      "outputs": [],
      "payable": false,
      "stateMutability": "nonpayable",
      "type": "function"
    },
    {
      "constant": true,
      "inputs": [],
      "name": "LIMIT",
      "outputs": [
        {
          "name": "",
          "type": "uint256"
        }
      ],
      "payable": false,
      "stateMutability": "view",
      "type": "function"
    },
    {
      "anonymous": false,
      "inputs": [
        {
          "indexed": true,
          "name": "_from",
          "type": "address"
        },
        {
          "indexed": true,
          "name": "_to",
          "type": "address"
        },
        {
          "indexed": false,
          "name": "_tokenId",
          "type": "uint256"
        }
      ],
      "name": "Transfer",
      "type": "event"
    },
    {
      "constant": false,
      "inputs": [
        {
          "name": "_owner",
          "type": "address"
        },
        {
          "name": "_tokenId",
          "type": "uint256"
        }
      ],
      "name": "createToken",
      "outputs": [
        {
          "name": "",
          "type": "uint256"
        }
      ],
      "payable": false,
      "stateMutability": "nonpayable",
      "type": "function"
    },
    {
      "constant": false,
      "inputs": [
        {
          "name": "owner",
          "type": "address"
        }
      ],
      "name": "createTokens",
      "outputs": [],
      "payable": false,
      "stateMutability": "nonpayable",
      "type": "function"
    }
  ],
  "bytecode": "0x6060604052341561000f57600080fd5b6107c88061001e6000396000f30060606040526004361061008e576000357c0100000000000000000000000000000000000000000000000000000000900463ffffffff1680630583e9f81461009357806318160ddd146100f65780636352211e1461011f5780636a10d4d61461018257806370a08231146101d8578063a9059cbb14610225578063af8214ef14610267578063cedbbeee14610290575b600080fd5b341561009e57600080fd5b6100b460048080359060200190919050506102c9565b604051808273ffffffffffffffffffffffffffffffffffffffff1673ffffffffffffffffffffffffffffffffffffffff16815260200191505060405180910390f35b341561010157600080fd5b6101096102fc565b6040518082815260200191505060405180910390f35b341561012a57600080fd5b610140600480803590602001909190505061030c565b604051808273ffffffffffffffffffffffffffffffffffffffff1673ffffffffffffffffffffffffffffffffffffffff16815260200191505060405180910390f35b341561018d57600080fd5b6101c2600480803573ffffffffffffffffffffffffffffffffffffffff1690602001909190803590602001909190505061038a565b6040518082815260200191505060405180910390f35b34156101e357600080fd5b61020f600480803573ffffffffffffffffffffffffffffffffffffffff1690602001909190505061039e565b6040518082815260200191505060405180910390f35b341561023057600080fd5b610265600480803573ffffffffffffffffffffffffffffffffffffffff169060200190919080359060200190919050506103e7565b005b341561027257600080fd5b61027a6104b7565b6040518082815260200191505060405180910390f35b341561029b57600080fd5b6102c7600480803573ffffffffffffffffffffffffffffffffffffffff169060200190919050506104bc565b005b60016020528060005260406000206000915054906101000a900473ffffffffffffffffffffffffffffffffffffffff1681565b6000600160008054905003905090565b6000806001600084815260200190815260200160002060009054906101000a900473ffffffffffffffffffffffffffffffffffffffff169050600073ffffffffffffffffffffffffffffffffffffffff168173ffffffffffffffffffffffffffffffffffffffff161415151561038157600080fd5b80915050919050565b600061039682846104e8565b905092915050565b6000600260008373ffffffffffffffffffffffffffffffffffffffff1673ffffffffffffffffffffffffffffffffffffffff168152602001908152602001600020549050919050565b600073ffffffffffffffffffffffffffffffffffffffff168273ffffffffffffffffffffffffffffffffffffffff161415151561042357600080fd5b61042c8161030c565b73ffffffffffffffffffffffffffffffffffffffff168273ffffffffffffffffffffffffffffffffffffffff161415151561046657600080fd5b3373ffffffffffffffffffffffffffffffffffffffff166104868261030c565b73ffffffffffffffffffffffffffffffffffffffff161415156104a857600080fd5b6104b3338383610569565b5050565b606481565b60008090505b6064811115156104e4576104d6828261038a565b5080806001019150506104c2565b5050565b60006104f2610735565b600060206040519081016040528086815250915060016000805480600101828161051c9190610749565b916000526020600020900160008590919091506000820151816000015550500390508063ffffffff168114151561055257600080fd5b61055e60008583610569565b809250505092915050565b600260008373ffffffffffffffffffffffffffffffffffffffff1673ffffffffffffffffffffffffffffffffffffffff16815260200190815260200160002060008154809291906001019190505550816001600083815260200190815260200160002060006101000a81548173ffffffffffffffffffffffffffffffffffffffff021916908373ffffffffffffffffffffffffffffffffffffffff160217905550600073ffffffffffffffffffffffffffffffffffffffff168373ffffffffffffffffffffffffffffffffffffffff1614151561069157600260008473ffffffffffffffffffffffffffffffffffffffff1673ffffffffffffffffffffffffffffffffffffffff16815260200190815260200160002060008154809291906001900391905055505b7fddf252ad1be2c89b69c2b068fc378daa952ba7f163c4a11628f55a4df523b3ef838383604051808473ffffffffffffffffffffffffffffffffffffffff1673ffffffffffffffffffffffffffffffffffffffff1681526020018373ffffffffffffffffffffffffffffffffffffffff1673ffffffffffffffffffffffffffffffffffffffff168152602001828152602001935050505060405180910390a1505050565b602060405190810160405280600081525090565b8154818355818115116107705781836000526020600020918201910161076f9190610775565b5b505050565b61079991905b80821115610795576000808201600090555060010161077b565b5090565b905600a165627a7a72305820fc9d37608ca9c8a661cbf4e1ff54124e69f881e21c3d318780feeb0b104e1c560029",
  "source": "pragma solidity ^0.4.18;\n\nimport \"./BaseOwnership.sol\";\n\n/// @title Miniting contract deals with the generation of new tokens\n/// @author Alex Koller & Kevin Le\n/// lastmod 27/3/18\ncontract TokenMinting is BaseOwnership {\n  /// constant used for limit on how many tokens to mint\n  uint256 public constant LIMIT = 100;\n\n  /// @dev creates an individual token\n  function createToken(address _owner, uint256 _tokenId) public returns(uint) {\n    return _generateToken(_tokenId, _owner);\n  }\n\n  /// @dev generates multiple tokens\n  function createTokens(address owner) public {\n    for (uint256 i = 0; i <= LIMIT; i++){\n      createToken(owner, i);\n    }\n  }\n}\n",
  "sourcePath": "/Users/alexkoller/GitHub/Pegacat/src/contracts/TokenMinting.sol",
  "compiler": {
    "name": "solc",
    "version": "0.4.19+commit.c4cbbb05.Emscripten.clang"
  },
  "schemaVersion": "2.0.0",
  "updatedAt": "2018-03-27T11:57:13.797Z"
}